:020000040800F2
:10000000580800200D030008C94A0008AD3F000849
:10001000C54A00082516000811510008000000001C
:10002000000000000000000000000000714B00080C
:100030002916000800000000394B00083D4C00085C
:1000400027030008270300082703000827030008E8
:1000500027030008270300082703000827030008D8
:1000600027030008270300082703000827030008C8
:1000700027030008270300082703000827030008B8
:1000800027030008270300082703000800000000DA
:10009000000000000000000000000000270300082E
:1000A0002703000827030008114D00082703000854
:1000B0002703000827030008270300082703000878
:1000C0002703000827030008270300082703000868
:1000D000270300082703000827030008000000008A
:1000E000270300082703000827030008000000007A
:1000F00000000000000000000000000027030008CE
:100100000000000027030008270300082703000859
:1001100000000000000000000000000000000000DF
:100120002703000827030008270300082703000807
:10013000270300080000000000000000000000008D
:10014000000000000000000000000000270300087D
:1001500027030008270300082703000827030008D7
:10016000270300082703000800000000000000002B
:10017000000000000000000000000000000000007F
:10018000000000002703000800000000000000003D
:100190002703000800F002F800F0A8F814A696E87B
:1001A000000CB244B344DA4501D100F09FF8BAE83C
:1001B0000F000FA696E83000A5EB040504EB060738
:1001C000AAEB0704A7F101074FEA15154FEA34140B
:1001D000A4F10104AC4201D300F088F813F0010F40
:1001E00018BFFB1A43F0010300F001F8DBE71847E2
:1001F0006865000088650000103A24BF78C878C19F
:10020000FAD8520724BF30C830C144BF04680C601C
:1002100070470000704700000023002400250026DE
:10022000103A28BF78C1FBD8520728BF30C148BF59
:100230000B6070476E2900F02F82702900F07183E7
:10024000662906F0D881652906F0D581672906F070
:10025000D281612906F0D18103681B0A28BF41F0D1
:100260008001692900F0DC81642900F0D9817529B9
:1002700000F0D6816F2900F0FF82782900F03D83DD
:10028000E92900F09982E42900F09682F52900F02E
:100290009382EF2900F0FC82F82900F03C83036888
:1002A000DB0928BF41F08001632901F03D807329FB
:1002B00001F04280E32901F04D80F32901F05280E2
:1002C000002070471FB506F084F901F0A1F8040082
:1002D0000020002105F0C4FE401C606000200021C9
:1002E00005F0A8FEE0601FBD10B510BD01F062F87A
:1002F0001146FFF7E7FF05F073F801F03FF903B48B
:10030000FFF7F2FF03BC01F085F9000009488047C0
:1003100009480047FEE7FEE7FEE7FEE7FEE7FEE7E7
:10032000FEE7FEE7FEE7FEE704480549054A064BFF
:1003300070470000FD4C000895010008580200209D
:1003400058080020580400205804002053EA020CEA
:1003500000F069802DE9F04B4FF00006002B1FBF25
:10036000B3FA83F503FA05F424FA05F65E4012BFEA
:100370001643B2FA82F502FA05F4C5F120051EBF54
:1003800022FA05FC44EA0C04203556EA044C4FEAF4
:10039000144418BF641C4FF000084FF0000990424D
:1003A00071EB030C39D3002919BFB1FA81F701FAB7
:1003B00007F6B0FA80F700FA07F6C7F120071EBF6C
:1003C00020FA07FC46EA0C062037B6FBF4FCA7EB44
:1003D0000507103F07F01F0BCBF120062CFA06F69D
:1003E0000CFA0BFB44BFB3460026202FA4BF5E4689
:1003F0004FF0000B5BEA060C08BF4FF0010B19EB46
:100400000B0948EB0608ABFB027C06FB02CC0BFB9E
:1004100003CCC01B71EB0C01C1E70B460246414601
:100420004846BDE8F08B13B5084318BF4FF0FF30C6
:100430000146AFF30080BDE81C4070470FB41CB507
:10044000084B06AA7B4469460090059800F03DF9E8
:1004500004460020694600F04BF920461CBC5DF8BC
:1004600014FB0000A902000040EA0103024630B577
:100470009B0710D14FF0013400E008C208C91D1BD2
:100480009D4315EAC41FF8D013F0FF0102F8011BC9
:100490000DD01B0AF8E711F8013B002B02F8013BD5
:1004A00005D011F8013B002B02F8013BF3D130BD20
:1004B00010B5431C02E010F8011B71B18107FAD19D
:1004C0004FF0013202C88C1A8C4314EAC211F9D0E1
:1004D000C01A0A0603D0C01E10BDC01A10BD0A04FF
:1004E00001D0801E10BD0902FCD0401E10BD421E6E
:1004F00012F8013F002BFBD111F8013B002B02F851
:10050000013BF9D170474FF0000200B51346944605
:100510009646203922BFA0E80C50A0E80C50B1F15B
:100520002001BFF4F7AF090728BFA0E80C5048BF6F
:100530000CC05DF804EB890028BF40F8042B08BF0D
:10054000704748BF20F8022B11F0804F18BF00F809
:10055000012B704770477047704770B50446856936
:100560000068C10601D5302600E02026C00707D06C
:1005700070BDD4E9012130469047206A401C2062BA
:100580006D1EF6D570BD70B5044685690078C0074C
:1005900007D170BDD4E9012120209047206A401C7A
:1005A00020626D1EF6D570BD09684A0501D540B2BE
:1005B0007047C905FCD500B2704709684A0501D5E6
:1005C000C0B27047C905FCD580B2704770B50C4603
:1005D0000546012A05D02878800600D5EA6900235F
:1005E00002E0012305E05B1C934202D2E05C00289C
:1005F000F9D1A869E618C01AA861286A18442862C7
:100600002846FFF7AAFF04E0D5E9012114F8010B01
:100610009047B442F8D32846FFF7B5FF70BD0000FD
:100620002DE9F0410646002410687529314616A5CB
:1006300010D0FFF7B9FF002802DA404213A507E007
:1006400031688A0701D512A502E0490704D511A532
:10065000012401E0FFF7B1FF00210A2206F124077F
:1006600009E0B0FBF2FCB0FBF2F302FB1C003030FF
:1006700078541846491C0028F3D123462A463046B0
:10068000BDE8F04100F061BA000000002D0000005C
:100690002B0000002000000011680268006A53056A
:1006A00001D508700AE0D30501D5088006E01306DD
:1006B00003D5C217C1E9000200E0086001207047BD
:1006C00001694A1C02610878704700B58FB0CDE916
:1006D00001310021059105497944CDE90310114606
:1006E000684600F029F90FB000BD0000E5FFFFFFEC
:1006F0000A6802F8010B0A60704700002DE9FF5FED
:1007000015468A460446DFF8AC80F8440027D8E94D
:1007100000103E46CDE9001010E03AF816106A4687
:1007200002A800F023FE411C07D02178890603D5DA
:10073000E269391891420DD80744761C207880066A
:1007400002D5E069B84205DDAE42E6DB3AF81600B4
:100750000028E2D1A069C01BA0612046FFF7FDFE82
:10076000D8E90010CDE90010002017E03AF8181081
:100770006A4602A800F0FAFDB0F1FF3F81460BD0B7
:1007800000250DF1080B05E0D4E901211BF8050057
:1007900090476D1C4D45F7D308F10100B0428046EB
:1007A000E4DB206A384420622046FFF7ECFEBDE817
:1007B000FF9F0000F25E00002DE9F0418046D21D4F
:1007C00022F007020025D2E90002F52915A614D06F
:1007D000011E72F1000106DA0023D0EB030063EB87
:1007E000020211A608E0D8F800108B0701D50FA669
:1007F00002E0490701D50EA601251146002408F1A3
:10080000240704E000F05CF930323A55641C50EAE9
:100810000102F7D12B46324621464046BDE8F04161
:1008200000F093B9000000002D0000002B00000034
:100830002000000030B4002100F1240408E002F0A0
:100840000705D208303542EA4372DB086554491C7B
:1008500052EA0305F3D10468002310A2250708D546
:1008600004F020040C4304D0C46901230CA2641ECC
:10087000C46130BC00F069B910B504462146106867
:10088000FFF79BFE02462046BDE810400023D1E75B
:10089000D21D22F00701D1E90023CBE700000000C0
:1008A00030000000F0B40D460188090502D5214C46
:1008B0007C4402E01F4C7C440E34002100F12406ED
:1008C00008E002F00F071209E75D42EA03721B0914
:1008D0007754491C52EA0307F3D102780023120728
:1008E00004D5702D06D009B1022311342246F0BC84
:1008F00000F02BB901231034F8E770B504460D461B
:1009000021461068FFF759FE024629462046BDE8F9
:1009100070400023C6E7D21D22F00703D3E900236D
:10092000C0E70368126843F0200303600823C36133
:100930000023B7E7545D00002DE9F05F89460446C7
:100940004FF0000ADFF874B1FB44C0F820A0204645
:10095000E1688847002874D0252806D0D4E9012111
:100960009047206A401C2062F1E700265F4620463F
:10097000E16888472028054607DB312D05D2781924
:1009800010F8200C08B10643F1E7B00701D526F0B6
:100990000406C4F81CA00027C4F818A02A2D09D00A
:1009A000284605F03FFB38B304EB8708303DC8F814
:1009B000185019E059F8041B204604EB8702916196
:1009C000E1688847012F054618D1E069002820DA40
:1009D00026F020061DE0D8F8180000EB800005EB9B
:1009E00040003038C8F818002046E16888470546BE
:1009F00005F018FB0028EED1012F0AD02E2D08D1CA
:100A00002046E16888477F1C0546022F46F02006F5
:100A1000C4DBA069002803DA404246F00106A06169
:100A2000F00701D026F010066C2D0BD0682D09D0F0
:100A30004C2D39D06A2D35D0742D35D07A2D33D048
:100A400016E038E0E1682F4620468847B842054660
:100A500009D16C2F26D04FF48060E1680643204610
:100A60008847054604E06C2F1AD04FF48070064387
:100A70000DB3A5F14100192802D8203546F40066CF
:100A80004A462946204626604E46FFF7D3FB80B1F2
:100A900001280BD0F61D26F0070000F1080956E7E3
:100AA0004020E4E78020D8E70020D6E706F10409DB
:100AB0004DE7284652E7206ABDE8F09FE45C00005D
:100AC00030B5B0F10A0271F100034FEA900E4EEA20
:100AD000817EB0EB0E0061EB91014FEA101E4EEAF1
:100AE000017E10EB0E0041EB11114FEA102E4EEA81
:100AF000016E10EB0E0041EB11214FEA104E4EEA51
:100B0000014E10EB0E0041EB1141401841F1000184
:100B10004FEAD00040EA41704FEAD1014FEA810428
:100B200044EA907410EB800544EB01046D1944EB2A
:100B30000404521BA3414FF0000348BF0A3200D502
:100B400030BD401C41F1000130BD2DE9F0470D469C
:100B500099469246044600F124080168880604D5A7
:100B6000E06921F01001216000E00120A84201DDD0
:100B7000471B00E00027A1697A1902EB0900081A57
:100B8000A0612078C00602D42046FFF7E6FC0026CC
:100B900008E0D4E901211AF806009047206A401CB9
:100BA000761C20624E45F4DB2078C0060AD520462C
:100BB000FFF7D3FC06E0D4E9012130209047206AFA
:100BC000401C2062381EA7F10107F4DC07E0D4E9DD
:100BD000012118F805009047206A401C2062281E59
:100BE000A5F10105F3DC2046FFF7CDFC20780006D7
:100BF00002D50220BDE8F0870120FBE72DE9FF4F79
:100C00000C461E464FF0FF378BB0D2E90001DDF8ED
:100C100060800A908A46C1F30A5505B93D46002115
:100C200008464FF00000BAF1000F00F4400005DA6A
:100C300000EB80004FF4400101EA50004FEA905968
:100C4000B9F1010F00DDB9460A9850EA4A000ED00A
:100C500044F61050A5F2FF3545432F14B8F1000FAC
:100C60001ED07542291E1EDDC9F100021CE0B8F13C
:100C7000010F4FF0000001D0302103E0F24305E006
:100C80002154401CB042FBDB30460022002121549D
:100C90000B99C1F80880C1E900200FB0BDE8F08FC2
:100CA000BD1B6D1CDEE74A4600DA694206A800F06B
:100CB000F3FB06AB93E8070003AB83E8070050465D
:100CC0000A9904F0CEFD8DE80700A0F500501F380A
:100CD00000900398002D0ADD42F21F014A460844A5
:100CE000002303A90390684605F038F809E0A0F551
:100CF00000504A461F38002303A90390684605F0B8
:100D000042F88DE807000004000C03D04FF0FF30DC
:100D1000410800E01046B8F1000F03D00022009215
:100D200015461EE0751E05D4FFF7CAFE3032625527
:100D30006D1EF9D5B3460122084302D000227F1C64
:100D400004E02078302801D100227F1E002A099774
:100D500084D01DE0112D07DAFFF7B2FE3032625564
:100D60006D1C50EA0102F5D1084302D00098C8B1C9
:100D70000EE00021681E05E0235C625C635422548F
:100D8000401E491C8142F7DBAB46A81B401E099060
:100D9000002004F80B000B98099AC0F80880C0E9FD
:100DA000002B7AE711264FF0000857E72DE9F04FA6
:100DB00088460446D21D22F0070191B0D1E9000116
:100DC000CDE90A0105F016F902460B98C00F01D0D3
:100DD0002D2007E02068810701D52B2002E020218B
:100DE00001EAC000032A099001D0072A05DB034667
:100DF0004146204600F010FB0BE12078800601D52B
:100E0000E06900E00620B8F1650F814606D0B8F130
:100E1000660F18D0B8F1670F70D131E00020B9F13A
:100E2000110F009001DB112301E009F101030AAA6F
:100E300001A90CA8FFF7E2FEDDE90C70002609F11C
:100E40000105834647E001204B4600904FF00047E4
:100E50000AAA01A90CA8FFF7D1FEDDE90DB00C9993
:100E60005D46002610B909F101000D18B9EB050027
:100E700003D4C0F1FF3609F10105A5EB09002BE011
:100E8000B9F1010F01DA4FF001090020B9F1110F9A
:100E90000090484601DD112300E003460AAA01A99B
:100EA0000CA8FFF7ABFEDDE90C704D46002683462B
:100EB000207800070AD4AB4500DA5D4601A8012D71
:100EC00004DD411911F8011C302907D04F4502DA21
:100ED00017F1040F04DA012082460FE06D1EEEE7E1
:100EE000002F02DCED1B3E4403E0781CA84200DD2D
:100EF0007D1CB81B00F1010A4FF000472078000765
:100F000003D4AA4501DB4FF0FF3A0021B7F1004FAF
:100F10000DF143088DF8431024D002202B23002F1D
:100F200001DA7F422D230A21021EA0F1010000DC1C
:100F30005FB197FBF1FC97FBF1F201FB1C7C1746BC
:100F40000CF1300C08F801CDEEE7A8F101000370B8
:100F50002188090501D5452100E06521A0F101089E
:100F600000F8011C09980FA9A1EB0807FF1D00B1AB
:100F70000120411901EBEA70A1693844081A401EAA
:100F8000A0612078C00602D42046FFF7E6FA09984F
:100F900028B1D4E901219047206A401C20622078C2
:100FA000C00622D52046FFF7D8FA1EE0002E04DB4B
:100FB000B34502DD01A8805D00E03020D4E90121C5
:100FC0009047206A401C2062761CAAF101005FEA6B
:100FD000000A0AD100F01CFAC0680168405CD4E93C
:100FE00001219047206A401C2062281EA5F10105BE
:100FF000DCDC07E0D4E9012118F8010B9047206AF6
:10100000401C2062381EA7F10107F3DC2046FFF7E1
:10101000BAFA032011B041E62DE9F04F04460D461F
:10102000D21D22F0070089B0D0E900974846394622
:1010300004F0E0FF0246F80F01D02D2307E02068FE
:10104000810701D52B2302E0202101EAC0038DF89E
:1010500020300BB1012000E00020032A824601D09D
:10106000072A04DB2946204600F0D6F93FE1207824
:10107000800601D40D2500E0E569C7F30A560D2D61
:1010800049DA00214FEA175B08464FF00000002FB5
:1010900000F4400007DA00EB80004FF4400100EB61
:1010A000D07001EA60008115012901DD4FF0FF31A8
:1010B00000224FEA850CBCF1180F06D31346ACF1A1
:1010C00018004FF08052C24003E04FF4801323FA1F
:1010D0000CF30CF10C0CBCF1200F04D3ACF1200C80
:1010E00009FA0CF001E007FA0CF000294FF0004873
:1010F00001DD18B90FE00ED140450CD319EB020900
:101100005F4121B9404502D19F4329EA0209BBEB67
:10111000175F00D0761C2088000502D57B487844F4
:1011200002E07A487844193808AA302302F80A30D5
:10113000037C0AF10101002E0AF1020A53546A46A7
:1011400002DC4FF0300101E04FF031014FF00108B7
:101150008DF8001002D0A6F2FF3603E059EA4701ED
:1011600000D06B4E002D02DC2178090704D54FF02A
:1011700002082E218DF80110C44600210BE0C7F3B0
:1011800003433F01C35C491C6D1E02F8083005296A
:1011900008F1010801DA002DF1DC00210CE000EB80
:1011A0001973491C1B786D1E082902F808304FEA94
:1011B000091908F1010801DA002DF0DC21688B061D
:1011C00002D516E0A8F10108E04505DD02EB0803B1
:1011D00013F8013C302BF5D0B8F1000F09DD02EB1C
:1011E000080313F8013C2E2B03D1090701D4A8F101
:1011F0000108002D05DD3E2102F808106D1E08F1E2
:101200000108407C002E02F8080008F1010804DA09
:101210002D20764202F8080002E02B2002F8080098
:101220000A214FF47A70864208F101080BDB96FB25
:10123000F0F3303302F8083096FBF0F308F10108C0
:1012400000FB136601E0642E0CDB642096FBF0F3D8
:10125000303302F8083096FBF0F308F1010800FB88
:10126000136601E00A2E06DB96FBF1F0303002F83F
:10127000080008F1010896FBF1F001FB1060303026
:1012800002F80800A16908F1010808EB050202EB69
:101290000A00081AA0612078C00602D42046FFF791
:1012A0005CF9216A08AE01EB0A00206204E0D4E98F
:1012B000012116F8010B9047BAF1010AF7D2207804
:1012C000C00602D52046FFF748F96E4609E016F839
:1012D000010B3E280FD0D4E901219047206A401C21
:1012E0002062B8F10108F2D22046FFF74CF909B0AC
:1012F0000320BDE8F08F206A2844206203E0D4E98F
:101300000121302090476D1EEBD3F8E732550000E5
:1013100002FCFFFF10B5436913B1AFF3008001E099
:10132000FFF754F9012010BD127800F124010A7072
:1013300000224A700122EDE711684FF0FF32E9E721
:1013400010B5436913B1AFF3008001E0FFF7D6F9A0
:10135000012010BD128800F1240182840022C28481
:101360000122EDE711684FF0FF32E9E72DE9F04186
:1013700016460C46054600F043F8036893F8010151
:10138000012807D0FF2C12D8185D80B101202C70E5
:10139000BDE8F081D3F807013246214603F2071376
:1013A000C7182846BC46BDE8F041002360474FF00F
:1013B000FF30EDE7754600F0EBF8AE4605006946F4
:1013C000534620F00700854618B020B5FEF7ACFF65
:1013D000BDE820404FF000064FF000074FF0000836
:1013E0004FF0000BAC46ACE8C009ACE8C009ACE873
:1013F000C009ACE8C00921F007018D467047000024
:1014000010B500F005F8001D10BD00BF554C0000E0
:1014100000487047580000202DE9F0411F4604465F
:1014200003260168072A01F4006004DB08B116A551
:1014300005E016A503E008B115A500E015A521F00B
:1014400010002060A069C01EA0610FB1401EA06105
:101450002046FFF782F84FB1D4E901213846904782
:10146000206A401C2062C01C206206E0206AFAE765
:10147000D4E9012115F8010B9047761EF8D22046D9
:10148000FFF781F8BDE8F0814E414E006E616E00BD
:10149000494E4600696E66002DE9F04781461646C2
:1014A0008AB0354878440DC88DE80D00324878443C
:1014B000801C03AC0DC884E80D0041F69B30084445
:1014C000372190FBF1F290FBF1F5A5F1800501FBCE
:1014D00012041B3C02D56442012000E00020DFF82A
:1014E00098A080460027FA44AAF1BE0A0EE0E00761
:1014F0000AD03246684607EB470101230AEB810117
:1015000004F041FC8DE8070064107F1C002CEED134
:10151000194F7F44AE3F19E0E80715D007EB0410E0
:101520000DF1180A90E80E008AE80E00C068F0423B
:1015300001D1981908903246012306A903A804F0A6
:1015400022FC03AB83E807006D10641C002DE3D17F
:101550004FF0010332466946B8F1000F03A802D0EC
:1015600004F0FCFB01E004F00EFCC9E90001C9F83D
:1015700008200AB0BDE8F0873C52000010B50446D0
:10158000AFF300802046BDE81040FEF7B8BE000073
:10159000004870473800002030B44FF0013C50F84C
:1015A000042B51F8043BCCFA52F4D51A20D1FCB9E3
:1015B00050F8042B51F8043BCCFA52F4D51A17D149
:1015C000B4B950F8042B51F8043BCCFA52F4D51AB4
:1015D0000ED16CB950F8042B51F8043BCCFA52F4FC
:1015E000D51A05D1002CDAD030BC4FF0000070477E
:1015F00029BAB1FA81F111F01801D1F1200084402B
:10160000F2D1CA40CB4012F0FF0213F0FF0330BC0E
:10161000D01A704701491820ABBEFEE72600020031
:1016200070470000FFE7FEE7704700004EF6FC51F0
:10163000CEF20001086820F080700860086840F071
:101640008070086041F20001CEF20001086820F0CD
:1016500001000860086840F00100086041F20401E0
:10166000CEF200010020086000BF00BF00BF70473D
:1016700084B0039040F20000C2F2000000684DF612
:101680008361C4F21B31A0FB0110800C0399484315
:10169000029041F20400CEF2000000680190FFE7E2
:1016A00041F20400CEF2000000680199401A009057
:1016B000FFE7009802998842F2D3FFE704B0704731
:1016C00072B6FFE7FEE7000080B582B08DF8070034
:1016D0009DF8070040F2F001C2F2000109780843CA
:1016E0008DF8060069460A20086040F24C10C2F2EC
:1016F00000004E210DF10602012300F0A7FC02B00C
:1017000080BD000080B584B0039000F0FFF9029026
:10171000039801900198013048B1FFE740F22D0095
:10172000C2F200000178019808440190FFE7FFE74A
:1017300000F0ECF90299401A0199884201D2FFE7C2
:10174000F6E704B080BD00008BB00A90099100203C
:101750000790069005900890FFE708980F2800F280
:10176000A281FFE708990120884007900998006846
:1017700007990840069006980799884240F08E81A4
:10178000FFE70998406800F00300012807D0FFE751
:101790000998406800F0030002282FD1FFE70A985B
:1017A0008068059008984100032000FA01F105982F
:1017B000884305900998C0680899490000FA01F12A
:1017C00005980843059005980A9988600A9840682A
:1017D00005900899012000FA01F1059888430590C9
:1017E00009984068C0F30010089900FA01F10598C3
:1017F0000843059005980A994860FFE709984068F2
:1018000000F00300032818D0FFE70A98C06805908D
:1018100008984100032000FA01F1059888430590DB
:10182000099880680899490000FA01F10598084371
:10183000059005980A99C860FFE70998406800F08C
:101840000300022826D1FFE70A9808996FF00302E7
:1018500002EA51010844006A0590089800F0070068
:1018600081000F2000FA01F105988843059009983E
:101870000069089901F00701890000FA01F1059853
:101880000843059005980A99089B02EA53021144FF
:101890000862FFE70A980068059008984100032055
:1018A00000FA01F10598884305900998406800F016
:1018B00003000899490000FA01F1059808430590D2
:1018C00005980A990860099880798007002800F037
:1018D000E480FFE7FFE70020049043F64400C4F2F1
:1018E0000200016841F480410160006800F480401A
:1018F00004900498FFE7089820F0030043F60801DD
:10190000C4F2010140580590089800F003008100DE
:101910000F2000FA01F10598884305900A980021EC
:10192000C4F20201884203D1FFE70020039034E0B3
:101930000A9840F20041C4F20201884203D1FFE755
:101940000120029026E00A9840F60001C4F202014C
:10195000884203D1FFE70220019018E00A9840F680
:101960000041C4F20201884203D1FFE70320009046
:101970000AE00A9941F20002C4F2020207209142F1
:1019800008BF04200090FFE700980190FFE701984E
:101990000290FFE702980390FFE70398C0B208990E
:1019A00001F00301890000FA01F105980843059050
:1019B0000598089921F0030143F60802C4F20102D8
:1019C000885043F60840C4F201000068059006996B
:1019D00005988843059009988079C006002805D5A8
:1019E000FFE70699059808430590FFE7059843F639
:1019F0000841C4F20101086043F60C40C4F2010042
:101A000000680590069905988843059009988079A3
:101A10008006002805D5FFE706990598084305903C
:101A2000FFE7059843F60C41C4F20101086043F654
:101A30000440C4F2010000680590069905988843A7
:101A40000590099880798007002805D5FFE7069959
:101A5000059808430590FFE7059843F60441C4F252
:101A60000101086043F60040C4F2010000680590DF
:101A7000069905988843059009988079C00728B190
:101A8000FFE70699059808430590FFE7059843F698
:101A90000041C4F201010860FFE7FFE7FFE7089893
:101AA0000130089059E60BB07047000082B00190F9
:101AB000ADF8021001980069BDF80210084204D088
:101AC000FFE701208DF8010003E000208DF8010000
:101AD000FFE79DF8010002B07047000082B001905E
:101AE000ADF802108DF801209DF8010028B1FFE744
:101AF000BDF802000199886105E0BDF8020000040C
:101B000001998861FFE702B07047000040F244206D
:101B1000C2F200000068704780B58EB00C900C983F
:101B200020B9FFE701208DF8370043E10C9890F8C9
:101B30003D0040B9FFE70C99002081F83C000C986B
:101B400000F0B8FEFFE70C99242081F83D000C98C6
:101B50000168086820F0010008600C9801680868B6
:101B600040F4004008600C980168086820F40040C8
:101B7000086001F03DF90A900C98406848F2A061B5
:101B8000C0F2010188420BD8FFE70A9948F280426F
:101B9000C0F21E020020914238BF012009900AE0E5
:101BA0000A9940F60012C0F23D020020914238BF6F
:101BB00001200990FFE70998012804D1FFE70120DF
:101BC0008DF83700F6E00A984DF68361C4F21B31B8
:101BD000A0FB0110800C0B900C980068406820F06E
:101BE0003F000B9908430C99096848600C980068FD
:101BF000006A20F03F0008900C98406848F2A0610D
:101C0000C0F20101884204D8FFE70B980130079029
:101C10000EE00B984FF49671484344F6D351C1F24D
:101C20006201A0FB0101012000EB91100790FFE78A
:101C30000898079908430C99096808620C9800688D
:101C4000C0694CF6FF71884306900C98406848F2D2
:101C5000A061C0F2010188421FD8FFE70A9801384D
:101C60000C9949684900B0FBF1F001306FF31F3067
:101C7000032803D8FFE7042005900BE00A980138F9
:101C80000C9949684900B0FBF1F001306FF31F3047
:101C90000590FFE7059804904CE00C98806868B9BF
:101CA000FFE70A9801380C99496801EB4101B0FB44
:101CB000F1F001306FF31F3003900DE00A98013806
:101CC0000C99496819225143B0FBF1F0013004210D
:101CD00061F31F300390FFE70398000518B9FFE791
:101CE0000120029023E00C98806868B9FFE70A9809
:101CF00001380C99496801EB4101B0FBF1F001306A
:101D00006FF31F3001900DE00A9801380C99496873
:101D100019225143B0FBF1F00130042161F31F306F
:101D20000190FFE7019840F400400290FFE702981D
:101D30000490FFE70698049908430C990968C86164
:101D40000C980068006820F0C0000C9B1968DA69E4
:101D50001B6A1A43104308600C980068806848F2B8
:101D6000FF3188430C9A1168D36812691A431043F3
:101D700088600C980068C06820F0FF000C9B196810
:101D80005A699B691A431043C8600C980168086837
:101D900040F0010008600C99002008640C9A202192
:101DA00082F83D100C9908630C9981F83E008DF87B
:101DB0003700FFE79DF837000EB080BD80B58CB0CE
:101DC0000A90ADF8261008920793FFF79FFE069041
:101DD000002005900A9890F83D00202840F02D81C1
:101DE000FFE70A9806996A4611600221C0F21001C5
:101DF0000122192302F07EFB20B1FFE702208DF8BB
:101E00002F001EE1FFE70A9890F83C00012804D15A
:101E1000FFE702208DF82F0013E10A99012081F8D5
:101E20003C00FFE7FFE70A980068006800F0010047
:101E3000012807D0FFE70A980168086840F0010010
:101E40000860FFE70A980168086820F400600860ED
:101E50000A99242081F83D000A99002008640A9913
:101E60000020CFF6FF70C862FFE70A980168086893
:101E700040F4807008600A98079B06996A461160D2
:101E80004FF00111002202F035FB80B1FFE70A9804
:101E900000680068C005002805D5FFE70A994FF4DF
:101EA00000700864FFE703208DF82F00C9E0BDF83B
:101EB000260000F0FE000A9909680861FFF726FE77
:101EC00006900A9800684069C0F340008DF813003E
:101ED0000A9800684069C0F380208DF81200FFE77F
:101EE0000A9890F83D100020A02902900DD0FFE73D
:101EF0009DF813100020029039B9FFE79DF81200F9
:101F0000B0FA80F040090290FFE70298C007F8B1EC
:101F1000FFE7FFF7FBFD0699401A0799884203D8AF
:101F2000FFE7079828B9FFE70A99A02081F83D004C
:101F3000FFE70A9800684069C0F340008DF813007D
:101F40000A9800684069C0F380208DF81200C7E746
:101F50000A99202081F83D000A980068406900F045
:101F600002010120B0EB510F32D1FFE70A9801685E
:101F7000086840F400700860FFE7002003900A98AA
:101F80000068406903900A9800688069039003988C
:101F9000FFE70A9806996A4611600221C0F2100113
:101FA0000122192302F0A6FA20B1FFE701208DF8E3
:101FB0002F0046E00A99202081F83D00FFE70A99AA
:101FC000002081F83C00FFE700208DF82F0038E06A
:101FD0000A980168086840F4007008600A9801686F
:101FE0006FF4806048610A9806996A461160022180
:101FF000C0F210010122192302F07CFA20B1FFE7A0
:1020000001208DF82F001CE0FFE7059801300590B6
:10201000FFE7059808998842FFF427AFFFE70A9980
:10202000202081F83D00FFE70A99002081F83C005C
:10203000FFE701208DF82F0003E002208DF82F002C
:10204000FFE79DF82F000CB080BD000080B588B080
:10205000DDF828C00690ADF816100492ADF80E30E9
:10206000FFF754FD0290069890F83D00202840F0BC
:10207000EB80FFE7069802996A4611600221C0F2E0
:1020800010010122192302F035FA20B1FFE70220E6
:102090008DF81F00DCE0FFE7069890F83C0001286F
:1020A00004D1FFE702208DF81F00D1E0069901203E
:1020B00081F83C00FFE7FFE706980068006800F041
:1020C0000100012807D0FFE706980168086840F082
:1020D00001000860FFE706980168086820F40060C6
:1020E00008600699212081F83D000699102081F8AA
:1020F0003E00069900200864049806994862BDF8DD
:102100000E00069948850698408D0699088506991F
:102110000020CFF6FF70C8620698BDF816100A9A24
:10212000029B01F077FF20B1FFE701208DF81F002F
:102130008EE0FFE70020019006980068406901905A
:1021400006980068806901900198FFE7FFE706980C
:10215000008D002860D0FFE706980A99029A02F0E5
:1021600065FB80B1FFE70698006C042807D1FFE704
:1021700006980168086840F400700860FFE70120D5
:102180008DF81F0064E006980168406A00780861D5
:102190000699486A013048620699488D0138488599
:1021A0000699088D0138088506980068406900F096
:1021B00004010120B0EB910F16D1FFE70698008DC6
:1021C00090B1FFE706980168406A007808610699B7
:1021D000486A013048620699488D01384885069959
:1021E000088D01380885FFE706980A99029A02F0DF
:1021F0002BF980B1FFE70698006C042807D1FFE7B0
:1022000006980168086840F400700860FFE7012044
:102210008DF81F001CE09AE706980168086840F4F2
:10222000007008600699202081F83D000699002082
:1022300081F83E00FFE70699002081F83C00FFE7A7
:1022400000208DF81F0003E002208DF81F00FFE73B
:102250009DF81F0008B080BD10B58CB08446109862
:102260000F98DDF838E0CDF828C0ADF82610ADF8AD
:102270002420ADF82230ADF82000FFF747FC07908E
:102280000A9890F83D00202840F00282FFE70A9863
:1022900007996A4611600221C0F210010122192338
:1022A00002F028F920B1FFE702208DF82F00F3E1BA
:1022B000FFE70A9890F83C00012804D1FFE70220CC
:1022C0008DF82F00E8E10A99012081F83C00FFE732
:1022D000FFE70A980068006800F00100012807D0B5
:1022E000FFE70A980168086840F001000860FFE70E
:1022F0000A980168086820F4006008600A992220A2
:1023000081F83D000A99402081F83E000A9900209A
:1023100008640E980A994862BDF820000A99488519
:102320000A98408D0A9908850A990020CFF6FF7017
:10233000C8620A98BDF82610BDF82420BDF82230E6
:10234000DDF840C0079CEE46CEF80440CEF800C051
:1023500001F0EAFE20B1FFE701208DF82F009BE19C
:102360000A98008DA0B9FFE7FFE7002006900A98C1
:102370000068406906900A9800688069069006988F
:10238000FFE70A980168086840F4007008604DE0B3
:102390000A98008D01281AD1FFE70A980168086899
:1023A00020F480600860FFE7002005900A9800682C
:1023B000406905900A980068806905900598FFE7D4
:1023C0000A980168086840F4007008602DE00A98D7
:1023D000008D02281AD1FFE70A980168086820F4E6
:1023E000806008600A980168086840F4006008602E
:1023F000FFE7002004900A980068406904900A985A
:102400000068806904900498FFE70DE0FFE7002072
:1024100003900A980068406903900A9800688069F0
:1024200003900398FFE7FFE7FFE7FFE7FFE70A985E
:10243000008D002800F01A81FFE70A98008D03281C
:1024400000F2CC80FFE70A98008D01281ED1FFE73B
:102450000A981099079A02F07BF920B1FFE7012052
:102460008DF82F0018E10A98006800690A99496AF6
:1024700008700A99486A013048620A99088D013843
:1024800008850A99488D01384885A6E00A98008D8C
:1024900002283CD1FFE70A98109B07996A46116011
:1024A0000421C0F20101002202F024F820B1FFE76C
:1024B00001208DF82F00EFE00A980168086840F4C9
:1024C000007008600A98006800690A99496A0870F3
:1024D0000A99486A013048620A99088D01380885CE
:1024E0000A99488D013848850A98006800690A9958
:1024F000496A08700A99486A013048620A99088D49
:10250000013808850A99488D0138488564E00A98A1
:10251000109B07996A4611600421C0F20101002254
:1025200001F0E8FF20B1FFE701208DF82F00B3E0B4
:102530000A980168086820F4806008600A980068BA
:1025400000690A99496A08700A99486A0130486224
:102550000A99088D013808850A99488D01384885FF
:102560000A98109B07996A4611600421C0F2010184
:10257000002201F0BFFF20B1FFE701208DF82F00FE
:102580008AE00A980168086840F4007008600A98B8
:10259000006800690A99496A08700A99486A013016
:1025A00048620A99088D013808850A99488D0138D2
:1025B00048850A98006800690A99496A08700A996A
:1025C000486A013048620A99088D013808850A99DD
:1025D000488D01384885FFE7FFE746E00A981099E3
:1025E000079A02F0B5F820B1FFE701208DF82F001F
:1025F00052E00A98006800690A99496A08700A99C5
:10260000486A013048620A99088D013808850A999C
:10261000488D013848850A980068406900F0040137
:102620000120B0EB910F1FD1FFE70A98008D03281E
:1026300007D1FFE70A980168086820F48060086005
:10264000FFE70A98006800690A99496A08700A99C0
:10265000486A013048620A99088D013808850A994C
:10266000488D01384885FFE7FFE7E0E60A9920201A
:1026700081F83D000A99002081F83E00FFE70A99A1
:10268000002081F83C00FFE700208DF82F0003E0D8
:1026900002208DF82F00FFE79DF82F000CB010BD31
:1026A00010B588B084460C980B98DDF828E0CDF87A
:1026B00018C0ADF81610ADF81420ADF81230ADF812
:1026C0001000FFF723FA0390069890F83D002028A9
:1026D00040F0E880FFE7069803996A4611600221FE
:1026E000C0F210010122192301F004FF20B1FFE71D
:1026F00002208DF81F00D9E0FFE7069890F83C0013
:10270000012804D1FFE702208DF81F00CEE00699D2
:10271000012081F83C00FFE7FFE7069800680068A9
:1027200000F00100012807D0FFE70698016808685B
:1027300040F001000860FFE706980168086820F48F
:10274000006008600699212081F83D00069940202C
:1027500081F83E000699002008640A9806994862AC
:10276000BDF81000069948850698408D06990885A1
:1027700006990020CFF6FF70C8620698BDF81610C3
:10278000BDF81420BDF81230DDF830C0039CEE46D1
:10279000CEF80440CEF800C001F0B8FD20B1FFE74C
:1027A00001208DF81F0081E0FFE70698008D0028CA
:1027B00049D0FFE706980C99039A02F037F880B1E8
:1027C000FFE70698006C042807D1FFE70698016828
:1027D000086840F400700860FFE701208DF81F00D2
:1027E00064E006980168406A007808610699486AC2
:1027F000013048620699088D013808850699488D90
:102800000138488506980068406900F004010120FD
:10281000B0EB910F16D1FFE70698008D90B1FFE75E
:1028200006980168406A007808610699486A013094
:1028300048620699088D013808850699488D013847
:102840004885FFE7B1E706980C99039A01F0FCFD73
:1028500080B1FFE70698006C042807D1FFE70698CF
:102860000168086840F400700860FFE701208DF8F7
:102870001F001BE006980168086840F400700860BB
:102880000699202081F83D000699002081F83E003D
:10289000FFE70699002081F83C00FFE700208DF853
:1028A0001F0003E002208DF81F00FFE79DF81F00C6
:1028B00008B010BD80B590B00F9000200E900D9024
:1028C0000C900B900A900F98006845F20041C4F2FA
:1028D0000001884235D1FFE7FFE70020099043F669
:1028E0003000C4F20200016841F00201016000689A
:1028F00000F0020009900998FFE74FF440700A9039
:1029000012200B9001200C9003200D9004200E90BB
:1029100040F20040C4F202000AA9FEF715FFFFE7EB
:102920000020089043F64000C4F20200016841F420
:1029300000110160006800F4001008900898FFE79B
:1029400065E00F98006845F60041C4F20001884236
:102950005CD1FFE7FFE70020079043F63000C4F2A8
:102960000200016841F001010160006800F001000F
:1029700007900798FFE7FFE70020069043F6300036
:10298000C4F20200016841F002010160006800F039
:10299000020006900698FFE74FF480700A9012201C
:1029A00001900B90012002900C90032003900D9059
:1029B00004200E900020C4F202000AA90491FEF740
:1029C000C3FE019B029A039804994FF0100CCDF8B6
:1029D00028C00B930C920D9009200E9040F20040FD
:1029E000C4F20200FEF7B0FEFFE70020059043F6B8
:1029F0004000C4F20200016841F400010160006877
:102A000000F4000005900598FFE7FFE7FFE710B02E
:102A100080BD000040F22D00C2F20000027840F2BA
:102A20004421C2F2000108681044086070470000A9
:102A300080B582B043F60041C4F20201086840F458
:102A400000700860086840F480600860086840F41E
:102A500080700860032000F08BF80020019000F0E7
:102A600005F800F03BF8019802B080BD80B582B057
:102A7000009040F20000C2F20000006840F22D0118
:102A8000C2F200010A784FF47A71B1FBF2F1B0FBA7
:102A9000F1F000F0A5FD20B1FFE701208DF807005F
:102AA00018E000980F280DD8FFE700994FF0FF308D
:102AB000002200F043F8009840F23001C2F2000119
:102AC000086003E001208DF8070003E000208DF886
:102AD0000700FFE79DF8070002B080BD82B0FFE766
:102AE0000020019043F64400C4F20200016841F462
:102AF00080410160006800F4804001900198FFE788
:102B0000FFE70020009043F64000C4F20200016895
:102B100041F080510160006800F080500090009802
:102B2000FFE702B07047000080B582B08DF8070063
:102B30009DF9070002F0FCFA02B080BD80B586B0B6
:102B40008DF81700049103920020029002F008FB18
:102B500002909DF91700019002980499039A01F0E0
:102B6000B5FF0146019802F003FB06B080BD0000EE
:102B700080B582B00190019802F01CFB02B080BDCC
:102B800080B584B002900191029820B9FFE701203E
:102B90008DF80F0021E1019843F60041C4F20201D3
:102BA000096801F00701884212D9FFE7019943F64D
:102BB0000040C4F202000170006800F007000199B3
:102BC000884204D0FFE701208DF80F0005E1FFE700
:102BD00002980078800700282AD5FFE7029800783D
:102BE0004007002809D5FFE743F60801C4F20201B7
:102BF000086840F4E0500860FFE70298007800079A
:102C0000002809D5FFE743F60801C4F2020108686D
:102C100040F460400860FFE743F60801C4F2020197
:102C2000086820F0F000029A926810430860FFE7FD
:102C300002980078C00700286ED0FFE7029840682D
:102C4000012811D1FFE743F60000C4F2020000683A
:102C500000F400310020B0EB514F04D1FFE7012018
:102C60008DF80F00B9E02CE002984068022805D0EA
:102C7000FFE702984068032811D1FFE743F6000000
:102C8000C4F20200006800F000710020B0EB516F48
:102C900004D1FFE701208DF80F009EE010E043F61D
:102CA0000000C4F20200006800F002010020B0EB56
:102CB000510F04D1FFE701208DF80F008DE0FFE7F1
:102CC000FFE743F60801C4F20201086820F00300A0
:102CD000029A526810430860FEF718FF0090FFE761
:102CE00043F60800C4F20200006800F00C000299EC
:102CF0004968B0EB810F0ED0FFE7FEF707FF0099A0
:102D0000401A41F28931884204D3FFE703208DF84D
:102D10000F0062E0E4E7FFE7019843F60041C4F2E8
:102D20000201096801F00701884212D2FFE7019908
:102D300043F60040C4F202000170006800F0070092
:102D40000199884204D0FFE701208DF80F0044E08C
:102D5000FFE702980078400700280CD5FFE743F60C
:102D60000801C4F20201086820F4E050029AD26817
:102D700010430860FFE702980078000700280DD58F
:102D8000FFE743F60801C4F20201086820F460403E
:102D9000029A126940EAC2000860FFE700F04CF8AE
:102DA00043F60801C4F202010968C9B20A0946F2F1
:102DB000FC61C0F60001895CC84040F20001C2F22B
:102DC0000001086040F23000C2F200000068FFF726
:102DD0004DFE00208DF80F00FFE79DF80F0004B0B6
:102DE00080BD000040F20000C2F2000000687047A1
:102DF00080B5FFF7F7FF43F60801C4F20201096846
:102E0000C1F3822246F20C71C0F60001895CC84011
:102E100080BD000080B5FFF7E5FF43F60801C4F26E
:102E20000201096889B24A0B46F20C71C0F6000132
:102E3000895CC84080BD000080B586B00020059048
:102E400004900390029043F60800C4F20200006868
:102E500000F00C000146019140B1FFE70198042801
:102E60000AD0FFE7019808280CD04FE042F200405A
:102E7000C0F2F40002904FE041F20020C0F27A006C
:102E8000029049E043F60400C4F20200016801F038
:102E90003F01059100684002002813D5FFE743F683
:102EA0000400C4F202000068C0F3881041F200215F
:102EB000C0F27A01A0FB0101059A0023FDF746FA52
:102EC000049012E043F60400C4F202000068C0F36C
:102ED000881042F20041C0F2F401A0FB0101059A02
:102EE0000023FDF733FA0490FFE743F60400C4F231
:102EF0000200006800F44031022000EBD130039062
:102F000004980399B0FBF1F0029005E042F2004012
:102F1000C0F2F4000290FFE7029806B080BD000006
:102F200080B586B00490049820B9FFE701208DF8A1
:102F3000170050E304980078C007002800F0A5802F
:102F4000FFE743F60800C4F20200006800F00C003E
:102F5000042813D0FFE743F60800C4F2020000681B
:102F600000F00C0008281ED1FFE743F60400C4F26D
:102F7000020000684002002815D5FFE743F6000074
:102F8000C4F20200006800F400310020B0EB514FA1
:102F900008D0FFE70498406820B9FFE701208DF8CA
:102FA000170018E370E0FFE704984068B0F5803F31
:102FB00009D1FFE743F60001C4F20201086840F4BA
:102FC0008030086020E004984068B0F5A02F0DD153
:102FD000FFE743F60001C4F20201086840F48020D4
:102FE0000860086840F4803008600CE043F6000197
:102FF000C4F20201086820F480300860086820F4F8
:1030000080200860FFE7FFE7FFE704984068E8B129
:10301000FFE7FEF77BFD0390FFE743F60000C4F2F5
:103020000200006800F400310020B0EB514F0CD1D9
:10303000FFE7FEF76BFD0399401A652804D3FFE70D
:1030400003208DF81700C6E2E7E71CE0FEF75EFDFF
:103050000390FFE743F60000C4F20200006800F4AA
:1030600000310020B0EB514F0CD0FFE7FEF74EFDD2
:103070000399401A652804D3FFE703208DF8170051
:10308000A9E2E7E7FFE7FFE7FFE70498007880079A
:10309000002840F19680FFE743F60800C4F20200E2
:1030A000006810F00C0F13D0FFE743F60800C4F2DD
:1030B0000200006800F00C0008282CD1FFE743F65E
:1030C0000400C4F2020000684002002823D4FFE795
:1030D00043F60000C4F20200006800F00201002084
:1030E000B0EB510F09D0FFE70498C068012804D065
:1030F000FFE701208DF817006DE243F60001C4F2EE
:103100000201086820F0F800049A126940EAC2003F
:103110000860FFE754E00498C06870B3FFE700213F
:10312000C4F2472101200860FEF7F0FC0390FFE79E
:1031300043F60000C4F20200006800F00201002023
:10314000B0EB510F0CD1FFE7FEF7E0FC0399401AFA
:10315000032804D3FFE703208DF817003BE2E7E7DD
:1031600043F60001C4F20201086820F0F800049A56
:10317000126940EAC200086021E00021C4F2472140
:1031800000200860FEF7C2FC0390FFE743F6000052
:10319000C4F20200006800F002010020B0EB510F01
:1031A0000CD0FFE7FEF7B2FC0399401A032804D3C2
:1031B000FFE703208DF817000DE2E7E7FFE7FFE7E1
:1031C000FFE704980078000700284BD5FFE7049834
:1031D000406918B3FFE740F68061C4F2472101203F
:1031E0000860FEF793FC0390FFE743F67400C4F217
:1031F0000200006800F002010020B0EB510F0CD17A
:10320000FFE7FEF783FC0399401A032804D3FFE786
:1032100003208DF81700DEE1E7E722E040F6806149
:10322000C4F2472100200860FEF770FC0390FFE71E
:1032300043F67400C4F20200006800F002010020AE
:10324000B0EB510F0CD0FFE7FEF760FC0399401A7A
:10325000032804D3FFE703208DF81700BBE1E7E75D
:10326000FFE7FFE7049800784007002840F1CE8090
:10327000FFE700208DF8070043F64000C4F202008B
:103280000068C000002815D4FFE7FFE70020009089
:1032900043F64000C4F20200016841F08051016031
:1032A000006800F0805000900098FFE701208DF842
:1032B0000700FFE747F20000C4F200000068C00505
:1032C000002822D4FFE747F20001C4F20001086899
:1032D00040F480700860FEF719FC0390FFE747F2A6
:1032E0000000C4F200000068C00500280CD4FFE70D
:1032F000FEF70CFC0399401A032804D3FFE70320D0
:103300008DF8170067E1EAE7FFE7FFE704988068B8
:10331000012809D1FFE743F67001C4F202010868F1
:1033200040F0010008601FE00498806805280DD176
:10333000FFE743F67001C4F20201086840F00400A0
:103340000860086840F0010008600CE043F6700176
:10335000C4F20201086820F001000860086820F04B
:1033600004000860FFE7FFE7FFE704988068F8B112
:10337000FFE7FEF7CBFB0390FFE743F67000C4F2D4
:103380000200006800F002010020B0EB510F0ED1E6
:10339000FFE7FEF7BBFB0399401A41F289318842EF
:1033A00004D3FFE703208DF8170014E1E5E71EE0E2
:1033B000FEF7ACFB0390FFE743F67000C4F2020097
:1033C000006800F002010020B0EB510F0ED0FFE7C3
:1033D000FEF79CFB0399401A41F28931884204D3DD
:1033E000FFE703208DF81700F5E0E5E7FFE79DF81C
:1033F0000700012809D1FFE743F64001C4F20201AA
:10340000086820F080500860FFE7FFE704988069B3
:10341000002800F0DC80FFE743F60800C4F2020059
:10342000006800F00C00082800F08580FFE7049891
:10343000806902285CD1FFE76021C4F247210020A7
:103440000860FEF763FB0390FFE743F60000C4F259
:103450000200006800F000710020B0EB516F0CD04A
:10346000FFE7FEF753FB0399401A032804D3FFE755
:1034700003208DF81700AEE0E7E70499C869D1F89A
:1034800020C04B6A8A6A40EA0C0040EA8310D203EB
:103490004FF6FF739A43A2F580321043C96A40EA9F
:1034A000016043F60401C4F2020108606021C4F225
:1034B000472101200860FEF729FB0390FFE743F650
:1034C0000000C4F20200006800F000710020B0EBC0
:1034D000516F0CD1FFE7FEF719FB0399401A03283F
:1034E00004D3FFE703208DF8170074E0E7E721E03D
:1034F0006021C4F2472100200860FEF707FB03901B
:10350000FFE743F60000C4F20200006800F000711B
:103510000020B0EB516F0CD0FFE7FEF7F7FA0399EC
:10352000401A032804D3FFE703208DF8170052E068
:10353000E7E7FFE74AE004988069012804D1FFE744
:1035400001208DF8170046E043F60400C4F20200A3
:103550000068029004988069012831D0FFE7029842
:1035600000F480000499C969884229D1FFE70298D4
:1035700000F03F000499096A884221D1FFE70298D0
:1035800047F6C07108400499496AB0EB811F17D112
:10359000FFE7029800F440300499896AC9034FF6A6
:1035A000FF729143A1F58031884209D1FFE702986B
:1035B00000F070600499C96AB0EB016F04D0FFE7B6
:1035C00001208DF8170006E0FFE7FFE7FFE7002086
:1035D0008DF81700FFE79DF8170006B080BD0000CA
:1035E00080B582B00190019801F0FEFA02B080BD72
:1035F00081B0009001B0704781B0009001B0704779
:1036000080B582B00090009820B9FFE701208DF8C6
:1036100007003FE0009890F83D0040B9FFE70099AF
:10362000002081F83C00009800F038F8FFE700998E
:10363000022081F83D00009951F8040B01F070FB65
:103640000099012081F84600FFE70099012081F8E8
:103650003E00009981F83F00009981F840000099F0
:1036600081F84100FFE7FFE70099012081F842005F
:10367000009981F84300009981F84400009981F88D
:103680004500FFE70099012081F83D0000208DF8FA
:103690000700FFE79DF8070002B080BD80B584B049
:1036A00003900398006844F60001C4F201018842C7
:1036B0001BD1FFE7FFE70020029043F64400C4F26D
:1036C0000200016841F480210160006800F480205C
:1036D00002900298FFE71A20019000221146FFF79E
:1036E0002DFA0198FFF720FAFFE704B080BD000033
:1036F00083B00190019890F83D00012804D0FFE7C5
:1037000001208DF80B0058E00199022081F83D005E
:1037100001980168C86840F00100C860019800681D
:103720000021C4F2010188422AD0FFE70198006815
:10373000B0F1804F24D0FFE70198006840F20041CB
:10374000C4F2000188421BD0FFE70198006840F6F0
:103750000001C4F20001884212D0FFE7019800681E
:1037600040F60041C4F20001884209D0FFE7019809
:10377000006844F20001C4F20101884212D1FFE75F
:1037800001980068806800F0070000900098062803
:1037900007D0FFE701980168086840F00100086061
:1037A000FFE706E001980168086840F00100086042
:1037B000FFE700208DF80B00FFE79DF80B0003B03A
:1037C0007047000081B0009001B0704780B584B0B0
:1037D000039003980068C06802900398006800692D
:1037E00001909DF804008007002824D5FFE79DF88C
:1037F0000800800700281DD5FFE7039801686FF0D7
:103800000200086103990120087703980068806925
:10381000800720B1FFE70398FFF7D4FF06E0039885
:1038200000F0E2F8039800F0E3F8FFE703990020C6
:103830000877FFE7FFE79DF804004007002825D53B
:10384000FFE79DF80800400700281ED5FFE7039812
:1038500001686FF00400086103990220087703985B
:103860000068806910F4407F04D0FFE70398FFF7F9
:10387000A9FF06E0039800F0B7F8039800F0B8F845
:10388000FFE7039900200877FFE7FFE79DF80400B2
:103890000007002824D5FFE79DF80800000700284E
:1038A0001DD5FFE7039801686FF0080008610399D0
:1038B0000420087703980068C069800720B1FFE7FB
:1038C0000398FFF77FFF06E0039800F08DF8039858
:1038D00000F08EF8FFE7039900200877FFE7FFE785
:1038E0009DF80400C006002825D5FFE79DF80800D4
:1038F000C00600281ED5FFE7039801686FF010008E
:10390000086103990820087703980068C06910F4DB
:10391000407F04D0FFE70398FFF754FF06E00398C9
:1039200000F062F8039800F063F8FFE703990020C5
:103930000877FFE7FFE79DF80400C00778B1FFE7CD
:103940009DF80800C00748B1FFE7039801686FF0D1
:1039500001000861039800F04FF8FFE7FFE79DF8CA
:1039600004000006002810D5FFE79DF808000006B7
:10397000002809D5FFE7039801686FF0800008610F
:103980000398FFF735FEFFE7FFE79DF804004006C8
:10399000002810D5FFE79DF808004006002809D54B
:1039A000FFE7039801686FF040000861039800F09A
:1039B000B3F8FFE7FFE79DF804008006002810D564
:1039C000FFE79DF808008006002809D5FFE7039867
:1039D00001686FF0200008610398FFF70DFEFFE714
:1039E000FFE704B080BD000081B0009001B07047D7
:1039F00081B0009001B0704781B0009040F2E101C9
:103A0000C2F200010020087040F23420C2F200002F
:103A1000006802283BD1FFE740F20800C2F2000034
:103A20000078C00770B1FFE740F20801C2F2000160
:103A30000020087040F20401C2F200010868143846
:103A4000086023E040F20800C2F200000078C007DE
:103A5000D8B9FFE740F20801C2F200010120087066
:103A600040F20C00C2F200000168143901600068E5
:103A7000B0F1FF3F08DCFFE740F20C01C2F20001A9
:103A800008686E300860FFE7FFE7FFE7FFE740F2F6
:103A90000400C2F200000068652807DBFFE740F27F
:103AA0000401C2F2000100200860FFE740F20C00B0
:103AB000C2F200000068652807DBFFE740F20C0156
:103AC000C2F2000100200860FFE740F23421C2F298
:103AD00000010020086040F2E201C2F20001012072
:103AE000087040F2EC00C2F2000001680131016090
:103AF000006802280DD1FFE740F2E001C2F20001A8
:103B00000120087040F2EC01C2F2000100200860C0
:103B1000FFE701B07047000081B0009001B070472E
:103B200080B582B00090009820B9FFE701208DF8A1
:103B3000070040E00098806908B1FFE700E0FFE778
:103B4000009890F8410040B9FFE70099002081F803
:103B50004000009800F034F8FFE70099242081F835
:103B6000410000980168C86820F40050C8600098BF
:103B700001F0C2F900980168086920F490400861DA
:103B800000980168486920F02A004861009801689F
:103B9000C86840F40050C860009900204864009A4A
:103BA000202182F84110009A82F84210009948635F
:103BB0008DF80700FFE79DF8070002B080BD000008
:103BC00080B588B00790002006900590049003907F
:103BD00002900798006844F20041C4F20001884254
:103BE00032D1FFE7FFE70020019043F64000C4F226
:103BF0000200016841F400310160006800F4003007
:103C000001900198FFE7FFE70020009043F63000A5
:103C1000C4F20200016841F001010160006800F097
:103C2000010000900098FFE70C2002900220039012
:103C3000002004900590072006900020C4F20200A6
:103C400002A9FDF781FDFFE708B080BD80B58AB00D
:103C500008900791ADF81A2005930020029008986B
:103C600090F84100202840F08180FFE7079820B1BC
:103C7000FFE7BDF81A0020B9FFE701208DF8270003
:103C800078E00899002048640899212081F84100D3
:103C9000FDF73CFF0290BDF81A0008998884BDF832
:103CA0001A000899C88408988068B0F5805F09D127
:103CB000FFE70898006928B9FFE7002004900798FB
:103CC000039004E00798049000200390FFE7FFE7CB
:103CD0000898C08C78B3FFE70898029B05996A465C
:103CE00011608021002201F0A5F940B1FFE7089999
:103CF000202081F8410003208DF827003AE0049845
:103D000058B9FFE7039800886FF35F2008990968A6
:103D1000486003980230039008E0049800780899FE
:103D200009684860049801300490FFE70899C88C3E
:103D30000138C884CCE70898029B05996A4611604F
:103D40004021002201F076F940B1FFE708992020D8
:103D500081F8410003208DF827000BE0089920200E
:103D600081F8410000208DF8270003E002208DF843
:103D70002700FFE79DF827000AB080BD80B501202D
:103D800000F026FF4FF4FA60FDF772FC80BD0000E2
:103D900080B584B08DF80F0002919DF80F0000F0FF
:103DA00007008DF80F009DF80F10402040EAC10079
:103DB000C0B200F00DFF00200190FFE70198072836
:103DC0000ADCFFE702980199405C00F0F5FEFFE78E
:103DD000019801300190F1E704B080BD80B540F258
:103DE000F100C2F20000017841F004010170007896
:103DF00040F0080000F0ECFE80BD000080B502201D
:103E000000F0E6FE4FF4FA60FDF732FC80BD0000E2
:103E100080B584B08DF80F009DF80F1040F2F400CB
:103E2000C2F20000017040F2F002C2F2000208216A
:103E3000117040F2F202C2F200020021117000780B
:103E4000022809DBFFE740F2F201C2F20001087824
:103E500040F00800087008E040F2F201C2F20001F0
:103E6000087840F004000870FFE7FDF7DFFB322020
:103E7000FDF748FC40F2F000C2F200000078FDF7C8
:103E800023FC4FF47A70FDF73DFC3020019001F0E7
:103E900041F941F294100290FDF7EAFB019801F01C
:103EA00039F90298FDF7E4FB019801F033F9029823
:103EB000FDF7DEFB202001F02DF96420FDF7D8FB93
:103EC00040F2F200C2F20000007840F0200000F062
:103ED0007FFE40F2F101C2F2000104200870FFF7FA
:103EE0007DFFFFF74BFF40F2F300C2F2000002211A
:103EF0000170007840F0040000F06AFE0298FDF7BF
:103F0000B7FB40F21D01C2F200010020FFF740FFA5
:103F100040F22501C2F200010120FFF739FFFFF74F
:103F20006DFF04B080BD000080B582B00190FFE756
:103F30000198007838B1FFE70198411C01910078A1
:103F400000F03AFEF4E702B080BD000080B586B014
:103F50008DF817008DF8161054200490142003904B
:103F600040200290002001909DF8160040F2F401DC
:103F7000C2F200010978884209DBFFE740F2F40051
:103F8000C2F20000007801388DF81600FFE79DF8B6
:103F900017009DF8162001A951F82210084440F09E
:103FA0008000C0B200F014FE06B080BDFFE7FEE75F
:103FB00082B0009000980068406900F480610120A0
:103FC000B0EB912F1ED1FFE7009801686FF480607D
:103FD0004861009900200863009A202182F83D1072
:103FE000009981F83E000099086C40F004000864D4
:103FF000FFE70099002081F83C00FFE701208DF8E1
:10400000070003E000208DF80700FFE79DF8070098
:1040100002B0704780B588B00690ADF816100492D3
:1040200003930698C06A02900298082809D0FFE717
:104030000298012805D0FFE7029810F5803F07D1CC
:10404000FFE706980168086840F4807008600DE09A
:104050000698006B122807D1FFE7069801680868E8
:1040600040F48070086000E0FFE7FFE70698049BDB
:1040700003996A4611604FF00111002200F03AFAEC
:1040800080B1FFE7069800680068C005002805D5E4
:10409000FFE706994FF400700864FFE703208DF8EE
:1040A0001F003CE006980069B0F5804F08D1FFE79B
:1040B000BDF8160000F0FE000699096808611CE0D2
:1040C000BDF8160000F44070C009F0300699096888
:1040D00008610698049A039B0821C0F2010100F0D0
:1040E0008DFA20B1FFE701208DF81F0017E09DF841
:1040F0001600069909680861FFE70698049A039B71
:104100000221C0F2010100F079FA20B1FFE701209D
:104110008DF81F0003E000208DF81F00FFE79DF8D9
:104120001F0008B080BD000080B586B0DDF824C057
:10413000DDF820C00490ADF80E10ADF80C20ADF8FD
:104140000A3004980168086840F4806008600498A8
:104150000168086840F4807008600498089B099919
:104160006A4611604FF00111002200F0C3F980B1DE
:10417000FFE7049800680068C005002805D5FFE740
:1041800004994FF400700864FFE703208DF81700CE
:10419000B7E0BDF80E0000F0FE0004990968086160
:1041A0000498089A099B0221C0F2010100F026FA46
:1041B00020B1FFE701208DF81700A2E0FFE7002003
:1041C0000190049800684069019004980068806933
:1041D00001900198FFE704980899099A00F026FBDE
:1041E00080B1FFE70498006C042807D1FFE704982A
:1041F0000168086840F400700860FFE701208DF84E
:1042000017007EE0BDF80A00012806D1FFE79DF8FF
:104210000C0004990968086121E09DF80D000499DB
:104220000968086104980899099A00F0FFFA80B1BA
:10423000FFE70498006C042807D1FFE704980168A1
:10424000086840F400700860FFE701208DF817004F
:1042500057E09DF80C00049909680861FFE704988D
:104260000899099A00F0E2FA80B1FFE70498006C1F
:10427000042807D1FFE704980168086840F400703B
:104280000860FFE701208DF817003AE00498016804
:10429000086840F4807008600498089B09996A4691
:1042A00011604FF00111002200F024F980B1FFE706
:1042B000049800680068C005002805D5FFE7049948
:1042C0004FF400700864FFE703208DF8170018E032
:1042D0009DF80E0040F001000499096808610498F7
:1042E000089A099B0221C0F2010100F087F920B170
:1042F000FFE701208DF8170003E000208DF817007C
:10430000FFE79DF8170006B080BD000080B586B0BD
:10431000DDF824C0DDF820C00490ADF80E10ADF833
:104320000C20ADF80A3004980168086840F48070E9
:1043300008600498089B09996A4611604FF00111C2
:10434000002200F0D7F880B1FFE704980068006809
:10435000C005002805D5FFE704994FF400700864F4
:10436000FFE703208DF8170069E0BDF80E0000F0AC
:10437000FE000499096808610498089A099B0221C3
:10438000C0F2010100F03AF920B1FFE701208DF8F9
:10439000170054E0FFE7002001900498006840698E
:1043A000019004980068806901900198FFE70498E3
:1043B0000899099A00F03AFA80B1FFE70498006C76
:1043C000042807D1FFE704980168086840F40070EA
:1043D0000860FFE701208DF8170030E0BDF80A0003
:1043E000012806D1FFE79DF80C00049909680861CF
:1043F00021E09DF80D000499096808610498089966
:10440000099A00F013FA80B1FFE70498006C0428C1
:1044100007D1FFE704980168086840F4007008605D
:10442000FFE701208DF8170009E09DF80C000499C2
:1044300009680861FFE700208DF81700FFE79DF885
:10444000170006B080BD000080B584B002900191D5
:104450000092FFE702980068406900F00401002024
:10446000B0EB910F3ED1FFE70298FFF7A1FD20B11D
:10447000FFE701208DF80F0038E00198013080B38C
:10448000FFE7FDF743FB0099401A0199884203D8E2
:10449000FFE7019820BBFFE702980068406900F041
:1044A00004010020B0EB910F19D1FFE70299002021
:1044B0000863029A202182F83D10029981F83E009B
:1044C0000299086C40F020000864FFE70299002080
:1044D00081F83C00FFE701208DF80F0006E0FFE7C0
:1044E000FFE7B7E700208DF80F00FFE79DF80F000A
:1044F00004B080BD80B588B0DDF828C00690059175
:104500008DF813200393FFE79DF8160001280CD1C6
:10451000FFE7069800684069BDF814100840401A8B
:10452000B0FA80F0400902900BE0069800688069BC
:10453000BDF814100840401AB0FA80F0400902900B
:10454000FFE702989DF8131088424FD1FFE70398C8
:104550000130002849D0FFE7FDF7D8FA0A99401A40
:104560000399884203D8FFE70398E8BBFFE79DF86B
:10457000160001280CD1FFE7069800684069BDF8D5
:1045800014100840401AB0FA80F0400901900BE086
:10459000069800688069BDF814100840401AB0FA07
:1045A00080F040090190FFE701989DF813108842C0
:1045B00019D1FFE7069900200863069A202182F8A6
:1045C0003D10069981F83E000699086C40F02000E5
:1045D0000864FFE70699002081F83C00FFE701200E
:1045E0008DF81F0006E0FFE7FFE78DE700208DF85C
:1045F0001F00FFE79DF81F0008B080BD80B588B0A0
:104600000690059104920393FFE79DF81600012898
:104610000CD1FFE7069800684069BDF81410084007
:10462000401AB0FA80F0400902900BE0069800684A
:104630008069BDF814100840401AB0FA80F04009B3
:104640000290FFE7029800287AD1FFE706980068F9
:10465000406900F480610120B0EB912F24D1FFE785
:1046600006980168086840F40070086006980168C0
:104670006FF480604861069900200863069A202143
:1046800082F83D10069981F83E000699086C40F0CA
:1046900004000864FFE70699002081F83C00FFE76A
:1046A00001208DF81F004FE004980130002846D00B
:1046B000FFE7FDF72BFA0399401A0499884203D8C3
:1046C000FFE70498D0BBFFE79DF8160001280CD146
:1046D000FFE7069800684069BDF814100840401ACA
:1046E000B0FA80F0400901900BE0069800688069FC
:1046F000BDF814100840401AB0FA80F0400901904B
:10470000FFE70198C8B9FFE7069900200863069AF9
:10471000202182F83D10069981F83E000699086C28
:1047200040F020000864FFE70699002081F83C0073
:10473000FFE701208DF81F0006E0FFE7FFE764E7D1
:1047400000208DF81F00FFE79DF81F0008B080BD16
:1047500080B584B0029001910092FFE70298006852
:10476000406900F040010020B0EB911F56D1FFE7F7
:1047700002980068406900F010010120B0EB111FA1
:104780001CD1FFE7029801686FF0100048610299A0
:1047900000200863029A202182F83D10029981F8D6
:1047A0003E000299086C0864FFE70299002081F836
:1047B0003C00FFE701208DF80F0033E0FDF7A6F97C
:1047C0000099401A0199884203D8FFE7019820BB5D
:1047D000FFE702980068406900F040010020B0EB5C
:1047E000911F19D1FFE7029900200863029A202146
:1047F00082F83D10029981F83E000299086C40F061
:1048000020000864FFE70299002081F83C00FFE7E0
:1048100001208DF80F0005E0FFE79FE700208DF8ED
:104820000F00FFE79DF80F0004B080BD80B584B095
:10483000029001910092FFE7029800684069C1B2BE
:104840000020B0EBD11F3DD1FFE70298FFF7B0FB8E
:1048500020B1FFE701208DF80F0037E0019801300B
:1048600078B3FFE7FDF752F90099401A01998842A1
:1048700003D8FFE7019818BBFFE70298006840697A
:10488000C1B20020B0EBD11F19D1FFE7029900207F
:104890000863029A202182F83D10029981F83E00B7
:1048A0000299086C40F020000864FFE7029900209C
:1048B00081F83C00FFE701208DF80F0006E0FFE7DC
:1048C000FFE7B9E700208DF80F00FFE79DF80F0024
:1048D00004B080BD80B58EB000200D900C900B9080
:1048E0000A900990FFE70020089043F63000C4F2D8
:1048F0000200016841F004010160006800F004005A
:1049000008900898FFE7FFE70020079043F6300083
:10491000C4F20200016841F080010160006800F00B
:10492000800007900798FFE7FFE70020069043F616
:104930003000C4F20200016841F00101016000682A
:1049400000F0010006900698FFE7FFE700200590C1
:1049500043F63000C4F20200016841F00201016038
:10496000006800F0020005900598FFE70020C4F2FF
:10497000020003902021019100220292FDF7AEF87F
:1049800002984FF4005109914FF404110A910B90D1
:1049900040F60000C4F2020009A90491FCF7D4FE1D
:1049A000019B029A03980499099301230A930B929D
:1049B0000C92FCF7C9FE0EB080BD000080B582B03D
:1049C00040F2F800C2F20000019045F20041C4F24A
:1049D0000001016048F2A061C0F2010141600021C4
:1049E0008160C1604FF48042026141618161C161B7
:1049F0000162FDF791F818B1FFE7FCF761FEFFE7F0
:104A000002B080BD80B582B040F24C10C2F200000E
:104A1000019045F60041C4F20001016048F2A06136
:104A2000C0F20101416000218160C1604FF4804209
:104A3000026141618161C1610162FDF76DF818B1E8
:104A4000FFE7FCF73DFEFFE702B080BD80B540F216
:104A5000A010C2F2000044F60001C4F2010101609E
:104A60004AF20F4141600021816040F2CF72C26082
:104A700001618161FEF7C4FD18B1FFE7FCF720FE7C
:104A8000FFE780BD80B582B040F2E810C2F20000BE
:104A9000019044F20041C4F2000101604FF4E131A1
:104AA000416000218160C16001610C22426181612D
:104AB000C161FFF735F818B1FFE7FCF701FEFFE72A
:104AC00002B080BDFFE7FEE7FFE7FEE788B0079092
:104AD00006910592079800F0070004900498C0F131
:104AE0000700052803D3FFE70420019004E00498A1
:104AF000C0F107000190FFE701980390049804308B
:104B0000062803D8FFE70020009003E0049803384C
:104B10000090FFE70098029006980399012202FA9C
:104B200001F101390840029B984005999A40013AE9
:104B30001140084308B070477047000080B582B04C
:104B40008DF807009DF8070040F00400FCF7BCFD5D
:104B500014200090FCF78CFD9DF8070000F0FB008E
:104B6000FCF7B2FD0098FCF783FD02B080BD0000A9
:104B70007047000080B582B08DF807008DF80610F0
:104B80009DF8070000F0F0008DF805009DF8070083
:104B900000018DF804009DF805009DF806100843FB
:104BA00000F0B8FA9DF804009DF80610084300F0E4
:104BB000B1FA02B080BD000080B582B08DF8070068
:104BC0009DF807000121FFF7D5FF02B080BD00006E
:104BD00080B582B08DF807009DF807000021FFF72F
:104BE000C9FF02B080BD000080B582B0009000987F
:104BF0000138B0F1807F03D3FFE70120019019E075
:104C0000009801384EF21401CEF2000108604FF016
:104C1000FF300F2100F0ACFA4EF21801CEF2000185
:104C2000002008604EF21002CEF20002072111604F
:104C30000190FFE7019802B080BD000080B5FDF74C
:104C4000E9FE80BD80B594B008A83021FBF75BFC7D
:104C5000002007900690059004900390FFE7002045
:104C6000029043F64000C4F20200016841F0805116
:104C70000160006800F0805002900298FFE7FFE7B3
:104C80000020019047F20000C4F2000001680222F7
:104C900062F38F310160006800F440400190019898
:104CA000FFE70221089101200B9010200C900E913B
:104CB00000210F9110904FF4A870119004201290D1
:104CC0000720139008A8FEF72BF918B1FFE7FCF7AF
:104CD000F7FCFFE70F2003900221049100200590CC
:104CE0004FF480520692079003A8FDF749FF18B1D0
:104CF000FFE7FCF7E5FCFFE714B080BD4EF68851F6
:104D0000CEF20001086840F47000086070470000AF
:104D100080B540F2A010C2F20000FEF757FD80BD42
:104D200083B00290019102980068009002980021DF
:104D3000C4F2010188421DD0FFE70298B0F1804F14
:104D400018D0FFE7029840F20041C4F20001884207
:104D500010D0FFE7029840F60001C4F2000188423B
:104D600008D0FFE7029840F60041C4F200018842F3
:104D70000AD1FFE7009820F0700000900198416888
:104D8000009808430090FFE702980021C4F2010157
:104D9000884235D0FFE70298B0F1804F30D0FFE76E
:104DA000029840F20041C4F20001884228D0FFE797
:104DB000029840F60001C4F20001884220D0FFE7CB
:104DC000029840F60041C4F20001884218D0FFE783
:104DD000029844F20001C4F20101884210D0FFE7BA
:104DE000029844F20041C4F20101884208D0FFE772
:104DF000029844F60001C4F2010188420AD1FFE79B
:104E0000009820F4407000900198C1680098084311
:104E10000090FFE7009820F080000199496908435D
:104E20000090019880680299C86201980068029910
:104E3000886202980021C4F20101884205D1FFE78F
:104E40000198006902990863FFE70299086840F039
:104E500004000860029901204861009802990860E6
:104E600003B0704784B00390FFE7FFE70398006842
:104E700050E8030F20F490700290FFE70299039826
:104E8000026842E803100028F0D1FFE7FFE7FFE7E0
:104E9000FFE70398006850E8050F20F0010001903B
:104EA000FFE701990398026842E805100028F0D155
:104EB000FFE7FFE70398006B012814D1FFE7FFE746
:104EC000FFE70398006850E8030F20F010000090FF
:104ED000FFE700990398026842E803100028F0D128
:104EE000FFE7FFE7FFE70399202081F842000399DD
:104EF0000020086304B0704780B586B0059005981F
:104F00000068006920F44050059A1168D268104387
:104F10000861059988680B694A69C9691843104393
:104F20000843049005980068C06849F20C61884302
:104F30000499084305990968C860059800684069A4
:104F400020F44070059A11689269104348610598F1
:104F5000006841F20001C4F20101884209D0FFE774
:104F60000598006841F20041C4F20101884204D171
:104F7000FFE7FDF74FFF039003E0FDF739FF0390D4
:104F8000FFE70598C069B0F5004F29D1FFE7039806
:104F90001921A0FB0101059A1368029353685A0076
:104FA000DB0FFBF7D3F90299864648F21F53C5F28F
:104FB000EB13AEFB0320420910014FF0640C02FB1F
:104FC0001CEC322202EBCC02A2FB0332F82303EAF0
:104FD000521300EB4300C2F342121044886026E0F3
:104FE00003981921A0FB0101059A136801935368E6
:104FF0009A009B0FFBF7AAF90199844648F21F52C9
:10500000C5F2EB12ACFB02304309642003FB10CC69
:10501000322000EB0C10A0FB0202F02000EA52103C
:1050200000EB0310C2F3431210448860FFE706B0A0
:1050300080BD000080B586B0DDF820C004900391EB
:105040008DF80B200193FFE704980068006803992E
:105050000840401AB0FA80F040099DF80B108842D1
:105060004DD1FFE708980130002847D0FFE7FCF753
:105070004DFD0199401A0899884203D8FFE7089826
:1050800020B9FFE703208DF817003CE00498006882
:10509000C0684007002830D5FFE7039880282CD04F
:1050A000FFE70398402828D0FFE7049800680068CD
:1050B00000F008010120B0EBD10F1DD1FFE7FFE7A1
:1050C0000020009004980068006800900498006830
:1050D000406800900098FFE70498FFF7C3FE04992A
:1050E00008204864FFE70499002081F84000FFE7AA
:1050F00001208DF8170006E0FFE7FFE7A4E7002096
:105100008DF81700FFE79DF8170006B080BD00007E
:10511000FFE7FEE780B582B08DF807009DF8070035
:10512000FCF7D2FA9DF80700FFF708FD02B080BD3A
:1051300081B08DF803009DF9030000280ED4FFE72D
:105140009DF9031001F01F02012090404A094EF220
:105150000011CEF2000141F82200FFE701B07047D4
:105160004EF60C50CEF200000068C0F302207047EB
:1051700082B08DF8070000919DF9070000280AD43D
:10518000FFE7009800019DF907104EF20042CEF2B1
:10519000000288540BE0009800019DF8071001F010
:1051A0000F014EF61452CEF200028854FFE702B00F
:1051B0007047000083B00290029800F00700009052
:1051C0004EF60C51CEF200010868019001984FF69E
:1051D000FF02104001900198009A40EA022000224C
:1051E000C0F2FA52104301900198086003B0704772
:1051F00080B586B004900020ADF80C0004980068DB
:105200006A4664219160022151600DF10E01116026
:10521000882106220123FDF71FF820B1FFE70120B6
:105220008DF8170011E09DF80F0000F00800ADF8B0
:105230000C00BDF80C0020B1FFE704208DF817002A
:1052400003E003208DF81700FFE79DF8170006B074
:1052500080BD00000000000080B586B00490049876
:1052600000686A4664219160022151600DF10E01CF
:105270001160882104220123FCF7EEFF20B1FFE733
:105280004FF07E5005901DE09DF80E109DF80F0028
:1052900040EA0120ADF80C00BDF90C0000F070FFF1
:1052A00041EC100B9FED0A1B53EC112B51EC100B32
:1052B00000F0F6FF41EC100B51EC100B00F0E6FE95
:1052C0000590FFE79DED050A06B080BD00BF00BF59
:1052D000706D55D0BC35D33E80B588B00690059131
:1052E000ADF8122005980699086006980068882194
:1052F0000A226423FCF762FD20B1FFE701208DF84C
:105300001F003CE080208DF8100000228DF8112055
:10531000069800686B46642199600221596004A9CF
:10532000196088210123FDF7BBF920B1FFE70120B7
:105330008DF81F0023E064200390FCF7E3F9039944
:105340009DF813008DF81000BDF812008DF81100C3
:10535000069800686A4691600221516004A91160B4
:10536000882100220123FDF79BF920B1FFE70120EE
:105370008DF81F0003E000208DF81F00FFE79DF867
:105380001F0008B080BD000080B586B0049042F6D2
:10539000AB30ADF80C009DF80D008DF80E00BDF897
:1053A0000C008DF80F00049800686A466421916033
:1053B000022151600DF10E011160882105220123A7
:1053C000FDF76EF920B1FFE701208DF8170003E02B
:1053D00000208DF81700FFE79DF8170006B080BD8C
:1053E00080B59CB0002019901B90FDF721FBFFF7C2
:1053F00029FCFFF76FFAFFF745FBFFF7DFFAFFF72E
:1054000001FBFFF723FB40F2A010C2F20000FEF701
:105410006FF940F2F801C2F2000118911AA8169033
:1054200040F26F12FFF758FF1698FFF7ADFF02200A
:105430001790FEF7EDFC17991898199A6B464FF0E4
:10544000FF3CC3F808C0596040F24121C2F200019C
:10545000196088210123FCF7FFFEFFE740F2E2001C
:10546000C2F200000078C007002800F0B180FFE71A
:105470001AA8FFF7BDFE042824D1FFE71AA8FFF7FA
:10548000EBFE9FEDE41A20EE010A40F2E400C2F2C6
:10549000000080ED000A006801F000F841EC100BFC
:1054A0009FEDDD1B53EC112B51EC100B01F036F886
:1054B00038B9FFE740F2E401C2F2000100200860C1
:1054C000FFE7FFE740F2E800C2F2000090ED000ABB
:1054D00040F2E401C2F2000191ED001A30EE010A3F
:1054E00040F20401C2F2000191ED001AB8EEC11AB7
:1054F00030EE010A40F20C01C2F2000191ED001AF7
:10550000B8EEC11A30EE010A80ED000A40F2E20165
:10551000C2F200010020087040F2E101C2F2000175
:105520000120087040F2E000C2F200000078C007DD
:1055300000284CD1FFE740F2E800C2F2000090EDF5
:10554000000AB0EE081A80EE010A10EE100A00F010
:10555000A5FF41EC100B8DED120B40F2E400C2F2FE
:105560000000006800F09AFF9DED120B41EC110B5A
:1055700040F20400C2F20000016840F20C00C2F2E6
:10558000000002686846C260816080ED001B53EC39
:10559000102B40F2A800C2F20000159046F21471E0
:1055A000C0F60001FAF74AFF1598FAF781FF15993E
:1055B000024640F2DC00C2F200000260028840F2C3
:1055C000E810C2F200000A23FEF740FBFFE7FFE706
:1055D00040F2E000C2F200000078C007002800F0AE
:1055E000BD80FFE740F2E100C2F200000078C00792
:1055F000002800F0B380FFE740F2E800C2F20000AC
:10560000109090ED000AB1EE081A80EE010A80EDCC
:10561000000AFEF7B3FB40F29800C2F200000690C9
:1056200040F21001C2F20001FAF71EFF1098006864
:1056300000F034FF41EC100B53EC102B40F23820FB
:10564000C2F20000059046F25071C0F60001FAF770
:10565000F5FE05990698FAF74AFF002111910846D0
:10566000FEF774FC0698FEF75FFC40F2E400C2F21D
:1056700000000890006800F011FF41EC100B40F2B0
:105680000400C2F200000E90006840F20C01C2F269
:1056900000010D910A6869464A60086053EC102BBE
:1056A00040F24820C2F20000079046F24271C0F674
:1056B0000001FAF7C3FE11980121FEF747FC079895
:1056C000FEF732FC1098006800F0E8FE02460898E9
:1056D00009920A46099942EC101B8DED0A0B0068ED
:1056E00000F0DCFE9DED0A0B02460D980B460E996C
:1056F00043EC112B096802686846C260816080ED46
:10570000001B53EC102B40F2A800C2F200000F90D7
:1057100046F21471C0F60001FAF790FE0F98FAF7FE
:10572000C7FE0F99024640F2DC00C2F200000260A0
:10573000028840F2E810C2F200000A23FEF786FA5F
:1057400010991198086040F2E001C2F2000108705F
:1057500040F2E101C2F200010870FFE740F60000EC
:10576000C4F202004FF40051FCF7A0F928BBFFE798
:1057700040F20800C2F200000078C007E8B1FFE77D
:1057800040F23020C2F200000078C007A8B1FFE765
:1057900040F23421C2F2000108680130086040F292
:1057A0000401C2F2000108680A30086040F23021AA
:1057B000C2F2000100200870FFE740F60000C4F2CA
:1057C00002004FF40051FCF771F9B8BBFFE740F25B
:1057D0000800C2F200000078C00778BBFFE740F283
:1057E0003020C2F200000078C00738B3FFE740F273
:1057F0003421C2F2000108680130086040F20C0058
:10580000C2F2000001680A310160006865280EDB01
:1058100006E000BF00007A449A9999999999A93FA6
:1058200040F20C01C2F2000100200860FFE740F2E4
:105830003021C2F2000100200870FFE740F60000AE
:10584000C4F202004FF40051FCF730F9012807D1EF
:10585000FFE740F23021C2F2000101200870FFE7AB
:10586000FCE55FEA400C08BF91F0000F4FEA8C2383
:105870004FEAC12243EA51514FEA1C5018BF00F5CC
:10588000F0404FEA300018BF41F000415FEA6C5C25
:1058900000F02980BCF1FF3F08BF40F08040704716
:1058A000130C06BF12044FF0100C4FF0000C130E37
:1058B00004BF12020CF1080C130F04BF12010CF10B
:1058C000040C930F04BF92000CF1020CD30F04BF21
:1058D00052000CF1010C11464FF00002A0F11F0024
:1058E000A0EB0C00704711F0004F08BF704731F07B
:1058F00000413FF4D5AF0B0C06BF09044FF0100C6C
:105900004FF0000C0B0E04BF09020CF1080C0B0F3A
:1059100004BF09010CF1040C8B0F04BF89000CF1CA
:10592000020CCB0F04BF49000CF1010CCCF1200399
:1059300022FA03F341EA030102FA0CF2A0EB0C0095
:1059400000F101007047000023F07F4720F07F4CFA
:1059500080EA030000F00040ACEB070303F57C5342
:1059600003F1FF032DE9804909B44FEA144324EA07
:1059700003484FEA154B25EA0B4E0FF2042606EBBF
:1059800013273E7803FB0667C7F5000707FB06F6FB
:105990004FEAD64606F102064FEA543707FB066C7B
:1059A000CCF1005C4FEA1C472CEA074C0CFB06F5D7
:1059B00007FB06F404EB15464FEA961649085FEA22
:1059C000320234BF00204FF000404FEAD13706FBCF
:1059D00007FC4FEA1C4C0CFB0BF7D21B03FB0CF72C
:1059E00061EB07010CFB0EF7B0EB074072EB1742BF
:1059F0000CFB08F734BFA2EB0742B2EB074261EBA6
:105A000017414FEA0C444FEA910706FB07FC4FEAA7
:105A10001C4C0CFB0BF7B0EBC74072EB573203FB8F
:105A20000CF734BFA2EBC742B2EBC74261EB573170
:105A30000CFB0EF7B0EBC70072EB57720CFB08F7CC
:105A400034BFA2EBC702B2EBC70261EB57714FEA5A
:105A5000816141EA92114FEA826242EA90124FEA72
:105A6000806004EBCC04039F4FEAD13706FB07FCB0
:105A70004FEA1C4C0CFB0BF7D21B03FB0CF761EB42
:105A800007010CFB0EF7B0EB074072EB17420CFB63
:105A900008F734BFA2EB0742B2EB074261EB1741B4
:105AA0004FEA8C5504EB9C244FEA910706FB07FC58
:105AB0004FEA1C4C0CFB0BF7B0EBC74072EB5732B4
:105AC00003FB0CF734BFA2EBC742B2EBC74261EB5A
:105AD00057310CFB0EF7B0EBC70072EB57720CFBA3
